{
  "_format": "hh-sol-artifact-1",
  "contractName": "ERC20Rollup",
  "sourceName": "contracts/ERC20Rollup.sol",
  "abi": [
    {
      "inputs": [
        {
          "internalType": "address",
          "name": "erc20TokenAddr",
          "type": "address"
        },
        {
          "internalType": "uint8",
          "name": "minSignerCnt",
          "type": "uint8"
        },
        {
          "internalType": "address[]",
          "name": "seedValidators",
          "type": "address[]"
        }
      ],
      "stateMutability": "nonpayable",
      "type": "constructor"
    },
    {
      "anonymous": false,
      "inputs": [
        {
          "indexed": false,
          "internalType": "address",
          "name": "validator",
          "type": "address"
        }
      ],
      "name": "AddValidator",
      "type": "event"
    },
    {
      "anonymous": false,
      "inputs": [
        {
          "indexed": false,
          "internalType": "uint256",
          "name": "height",
          "type": "uint256"
        },
        {
          "indexed": false,
          "internalType": "bytes32",
          "name": "blockHash",
          "type": "bytes32"
        },
        {
          "indexed": false,
          "internalType": "bytes32",
          "name": "merkleRoot",
          "type": "bytes32"
        },
        {
          "indexed": false,
          "internalType": "bytes32",
          "name": "txsHash",
          "type": "bytes32"
        }
      ],
      "name": "AppendBlock",
      "type": "event"
    },
    {
      "anonymous": false,
      "inputs": [
        {
          "indexed": true,
          "internalType": "address",
          "name": "previousOwner",
          "type": "address"
        },
        {
          "indexed": true,
          "internalType": "address",
          "name": "newOwner",
          "type": "address"
        }
      ],
      "name": "OwnershipTransferred",
      "type": "event"
    },
    {
      "anonymous": false,
      "inputs": [
        {
          "indexed": false,
          "internalType": "address",
          "name": "account",
          "type": "address"
        }
      ],
      "name": "Paused",
      "type": "event"
    },
    {
      "anonymous": false,
      "inputs": [
        {
          "indexed": false,
          "internalType": "address",
          "name": "validator",
          "type": "address"
        }
      ],
      "name": "RemoveValidator",
      "type": "event"
    },
    {
      "anonymous": false,
      "inputs": [
        {
          "indexed": false,
          "internalType": "address",
          "name": "account",
          "type": "address"
        }
      ],
      "name": "Unpaused",
      "type": "event"
    },
    {
      "anonymous": false,
      "inputs": [
        {
          "indexed": false,
          "internalType": "bytes32",
          "name": "txHash",
          "type": "bytes32"
        },
        {
          "indexed": false,
          "internalType": "address",
          "name": "to",
          "type": "address"
        },
        {
          "indexed": false,
          "internalType": "uint256",
          "name": "amount",
          "type": "uint256"
        },
        {
          "indexed": false,
          "internalType": "uint256",
          "name": "blockHeight",
          "type": "uint256"
        }
      ],
      "name": "Withdraw",
      "type": "event"
    },
    {
      "inputs": [
        {
          "internalType": "uint256",
          "name": "height",
          "type": "uint256"
        },
        {
          "internalType": "bytes32",
          "name": "blockHash",
          "type": "bytes32"
        },
        {
          "internalType": "bytes32",
          "name": "merkleRoot",
          "type": "bytes32"
        },
        {
          "internalType": "bytes32",
          "name": "txsHash",
          "type": "bytes32"
        },
        {
          "components": [
            {
              "internalType": "address",
              "name": "signer",
              "type": "address"
            },
            {
              "internalType": "bytes",
              "name": "signature",
              "type": "bytes"
            }
          ],
          "internalType": "struct ERC20Rollup.Signature[]",
          "name": "signatures",
          "type": "tuple[]"
        }
      ],
      "name": "appendBlock",
      "outputs": [],
      "stateMutability": "nonpayable",
      "type": "function"
    },
    {
      "inputs": [],
      "name": "blockHeight",
      "outputs": [
        {
          "internalType": "uint256",
          "name": "",
          "type": "uint256"
        }
      ],
      "stateMutability": "view",
      "type": "function"
    },
    {
      "inputs": [
        {
          "internalType": "uint256",
          "name": "",
          "type": "uint256"
        }
      ],
      "name": "blocks",
      "outputs": [
        {
          "internalType": "uint256",
          "name": "height",
          "type": "uint256"
        },
        {
          "internalType": "bytes32",
          "name": "blockHash",
          "type": "bytes32"
        },
        {
          "internalType": "bytes32",
          "name": "merkleRoot",
          "type": "bytes32"
        },
        {
          "internalType": "bytes32",
          "name": "txsHash",
          "type": "bytes32"
        }
      ],
      "stateMutability": "view",
      "type": "function"
    },
    {
      "inputs": [
        {
          "internalType": "uint256",
          "name": "height",
          "type": "uint256"
        }
      ],
      "name": "getBlock",
      "outputs": [
        {
          "internalType": "bytes32",
          "name": "blockHash",
          "type": "bytes32"
        },
        {
          "internalType": "bytes32",
          "name": "merkleRoot",
          "type": "bytes32"
        },
        {
          "internalType": "bytes32",
          "name": "txsHash",
          "type": "bytes32"
        }
      ],
      "stateMutability": "view",
      "type": "function"
    },
    {
      "inputs": [],
      "name": "getSeedValidators",
      "outputs": [
        {
          "internalType": "address[]",
          "name": "",
          "type": "address[]"
        }
      ],
      "stateMutability": "view",
      "type": "function"
    },
    {
      "inputs": [],
      "name": "getValidators",
      "outputs": [
        {
          "internalType": "address[]",
          "name": "",
          "type": "address[]"
        }
      ],
      "stateMutability": "view",
      "type": "function"
    },
    {
      "inputs": [],
      "name": "minSignerCount",
      "outputs": [
        {
          "internalType": "uint8",
          "name": "",
          "type": "uint8"
        }
      ],
      "stateMutability": "view",
      "type": "function"
    },
    {
      "inputs": [],
      "name": "owner",
      "outputs": [
        {
          "internalType": "address",
          "name": "",
          "type": "address"
        }
      ],
      "stateMutability": "view",
      "type": "function"
    },
    {
      "inputs": [],
      "name": "pause",
      "outputs": [],
      "stateMutability": "nonpayable",
      "type": "function"
    },
    {
      "inputs": [],
      "name": "paused",
      "outputs": [
        {
          "internalType": "bool",
          "name": "",
          "type": "bool"
        }
      ],
      "stateMutability": "view",
      "type": "function"
    },
    {
      "inputs": [],
      "name": "renounceOwnership",
      "outputs": [],
      "stateMutability": "nonpayable",
      "type": "function"
    },
    {
      "inputs": [],
      "name": "tokenAddress",
      "outputs": [
        {
          "internalType": "address",
          "name": "",
          "type": "address"
        }
      ],
      "stateMutability": "view",
      "type": "function"
    },
    {
      "inputs": [
        {
          "internalType": "address",
          "name": "to",
          "type": "address"
        },
        {
          "internalType": "uint256",
          "name": "amount",
          "type": "uint256"
        }
      ],
      "name": "transferLockedFund",
      "outputs": [],
      "stateMutability": "nonpayable",
      "type": "function"
    },
    {
      "inputs": [
        {
          "internalType": "address",
          "name": "newOwner",
          "type": "address"
        }
      ],
      "name": "transferOwnership",
      "outputs": [],
      "stateMutability": "nonpayable",
      "type": "function"
    },
    {
      "inputs": [],
      "name": "unpause",
      "outputs": [],
      "stateMutability": "nonpayable",
      "type": "function"
    },
    {
      "inputs": [
        {
          "internalType": "bytes32",
          "name": "validatorsHash",
          "type": "bytes32"
        },
        {
          "internalType": "address[]",
          "name": "validatorsToUpdate",
          "type": "address[]"
        },
        {
          "components": [
            {
              "internalType": "address",
              "name": "signer",
              "type": "address"
            },
            {
              "internalType": "bytes",
              "name": "signature",
              "type": "bytes"
            }
          ],
          "internalType": "struct ERC20Rollup.Signature[]",
          "name": "signatures",
          "type": "tuple[]"
        },
        {
          "internalType": "enum ERC20Rollup.ValidatorAction",
          "name": "action",
          "type": "uint8"
        }
      ],
      "name": "updateValidator",
      "outputs": [],
      "stateMutability": "nonpayable",
      "type": "function"
    },
    {
      "inputs": [
        {
          "internalType": "bytes32",
          "name": "txHash",
          "type": "bytes32"
        },
        {
          "internalType": "address",
          "name": "to",
          "type": "address"
        },
        {
          "internalType": "uint256",
          "name": "amount",
          "type": "uint256"
        },
        {
          "internalType": "uint256",
          "name": "targetBlockHeight",
          "type": "uint256"
        },
        {
          "internalType": "bytes32[]",
          "name": "proofs",
          "type": "bytes32[]"
        }
      ],
      "name": "withdraw",
      "outputs": [],
      "stateMutability": "nonpayable",
      "type": "function"
    }
  ],
  "bytecode": "0x608060405260006006553480156200001657600080fd5b5060405162005f1538038062005f1583398181016040528101906200003c9190620004a4565b6200005c620000506200025a60201b60201c565b6200026260201b60201c565b60008060146101000a81548160ff021916908315150217905550600073ffffffffffffffffffffffffffffffffffffffff168373ffffffffffffffffffffffffffffffffffffffff161415620000e9576040517f08c379a0000000000000000000000000000000000000000000000000000000008152600401620000e090620005af565b60405180910390fd5b60008260ff161162000132576040517f08c379a00000000000000000000000000000000000000000000000000000000081526004016200012990620005d1565b60405180910390fd5b600081511162000179576040517f08c379a00000000000000000000000000000000000000000000000000000000081526004016200017090620005f3565b60405180910390fd5b80518260ff161015620001c3576040517f08c379a0000000000000000000000000000000000000000000000000000000008152600401620001ba9062000615565b60405180910390fd5b82600360016101000a81548173ffffffffffffffffffffffffffffffffffffffff021916908373ffffffffffffffffffffffffffffffffffffffff16021790555081600360006101000a81548160ff021916908360ff16021790555080600590805190602001906200023792919062000326565b5080600490805190602001906200025092919062000326565b505050506200082f565b600033905090565b60008060009054906101000a900473ffffffffffffffffffffffffffffffffffffffff169050816000806101000a81548173ffffffffffffffffffffffffffffffffffffffff021916908373ffffffffffffffffffffffffffffffffffffffff1602179055508173ffffffffffffffffffffffffffffffffffffffff168173ffffffffffffffffffffffffffffffffffffffff167f8be0079c531659141344cd1fd0a4f28419497f9722a3daafe3b4186f6b6457e060405160405180910390a35050565b828054828255906000526020600020908101928215620003a2579160200282015b82811115620003a15782518260006101000a81548173ffffffffffffffffffffffffffffffffffffffff021916908373ffffffffffffffffffffffffffffffffffffffff1602179055509160200191906001019062000347565b5b509050620003b19190620003b5565b5090565b5b80821115620003d0576000816000905550600101620003b6565b5090565b6000620003eb620003e58462000660565b62000637565b905080838252602082019050828560208602820111156200040b57600080fd5b60005b858110156200043f578162000424888262000449565b8452602084019350602083019250506001810190506200040e565b5050509392505050565b6000815190506200045a81620007fb565b92915050565b600082601f8301126200047257600080fd5b815162000484848260208601620003d4565b91505092915050565b6000815190506200049e8162000815565b92915050565b600080600060608486031215620004ba57600080fd5b6000620004ca8682870162000449565b9350506020620004dd868287016200048d565b925050604084015167ffffffffffffffff811115620004fb57600080fd5b620005098682870162000460565b9150509250925092565b6000620005226004836200068f565b91506200052f8262000757565b602082019050919050565b6000620005496004836200068f565b9150620005568262000780565b602082019050919050565b6000620005706004836200068f565b91506200057d82620007a9565b602082019050919050565b6000620005976004836200068f565b9150620005a482620007d2565b602082019050919050565b60006020820190508181036000830152620005ca8162000513565b9050919050565b60006020820190508181036000830152620005ec816200053a565b9050919050565b600060208201905081810360008301526200060e8162000561565b9050919050565b60006020820190508181036000830152620006308162000588565b9050919050565b60006200064362000656565b9050620006518282620006e1565b919050565b6000604051905090565b600067ffffffffffffffff8211156200067e576200067d62000717565b5b602082029050602081019050919050565b600082825260208201905092915050565b6000620006ad82620006b4565b9050919050565b600073ffffffffffffffffffffffffffffffffffffffff82169050919050565b600060ff82169050919050565b620006ec8262000746565b810181811067ffffffffffffffff821117156200070e576200070d62000717565b5b80604052505050565b7f4e487b7100000000000000000000000000000000000000000000000000000000600052604160045260246000fd5b6000601f19601f8301169050919050565b7f4535303100000000000000000000000000000000000000000000000000000000600082015250565b7f4535303300000000000000000000000000000000000000000000000000000000600082015250565b7f4535303400000000000000000000000000000000000000000000000000000000600082015250565b7f4535303500000000000000000000000000000000000000000000000000000000600082015250565b6200080681620006a0565b81146200081257600080fd5b50565b6200082081620006d4565b81146200082c57600080fd5b50565b6156d6806200083f6000396000f3fe608060405234801561001057600080fd5b506004361061010b5760003560e01c80637f816647116100a2578063b7ab4db511610071578063b7ab4db51461024a578063f25b3f9914610268578063f2fde38b1461029b578063f44ff712146102b7578063fbfdf67a146102d55761010b565b80637f816647146101e85780638456cb59146102045780638da5cb5b1461020e5780639d76ea581461022c5761010b565b8063569cf3f9116100de578063569cf3f9146101865780635c975abb146101a257806364fd690e146101c0578063715018a6146101de5761010b565b806304c075691461011057806313979552146101425780633d6c07c91461015e5780633f4ba83a1461017c575b600080fd5b61012a60048036038101906101259190613899565b6102f1565b60405161013993929190614328565b60405180910390f35b61015c6004803603810190610157919061370a565b61044d565b005b6101666106be565b60405161017391906149c6565b60405180910390f35b6101846106d1565b005b6101a0600480360381019061019b91906138eb565b610757565b005b6101aa610b2f565b6040516101b791906142c8565b60405180910390f35b6101c8610b45565b6040516101d591906142a6565b60405180910390f35b6101e6610bd3565b005b61020260048036038101906101fd919061376f565b610c5b565b005b61020c611136565b005b6102166111bc565b6040516102239190614262565b60405180910390f35b6102346111e5565b6040516102419190614262565b60405180910390f35b61025261120b565b60405161025f91906142a6565b60405180910390f35b610282600480360381019061027d9190613899565b611299565b6040516102929493929190614981565b60405180910390f35b6102b560048036038101906102b091906136e1565b6112d9565b005b6102bf6113d1565b6040516102cc9190614966565b60405180910390f35b6102ef60048036038101906102ea91906137fe565b6113d7565b005b600080600060025484111561033b576040517f08c379a000000000000000000000000000000000000000000000000000000000815260040161033290614706565b60405180910390fd5b600180856103499190614bd6565b81548110610380577f4e487b7100000000000000000000000000000000000000000000000000000000600052603260045260246000fd5b906000526020600020906004020160010154600180866103a09190614bd6565b815481106103d7577f4e487b7100000000000000000000000000000000000000000000000000000000600052603260045260246000fd5b906000526020600020906004020160020154600180876103f79190614bd6565b8154811061042e577f4e487b7100000000000000000000000000000000000000000000000000000000600052603260045260246000fd5b9060005260206000209060040201600301549250925092509193909250565b3373ffffffffffffffffffffffffffffffffffffffff1661046c6111bc565b73ffffffffffffffffffffffffffffffffffffffff16146104c2576040517f08c379a00000000000000000000000000000000000000000000000000000000081526004016104b990614686565b60405180910390fd5b6104ca610b2f565b610509576040517f08c379a000000000000000000000000000000000000000000000000000000000815260040161050090614806565b60405180910390fd5b600073ffffffffffffffffffffffffffffffffffffffff168273ffffffffffffffffffffffffffffffffffffffff161415610579576040517f08c379a000000000000000000000000000000000000000000000000000000000815260040161057090614866565b60405180910390fd5b600081116105bc576040517f08c379a00000000000000000000000000000000000000000000000000000000081526004016105b390614666565b60405180910390fd5b6000600360019054906101000a900473ffffffffffffffffffffffffffffffffffffffff169050818173ffffffffffffffffffffffffffffffffffffffff166370a08231306040518263ffffffff1660e01b815260040161061d9190614262565b60206040518083038186803b15801561063557600080fd5b505afa158015610649573d6000803e3d6000fd5b505050506040513d601f19601f8201168201806040525081019061066d91906138c2565b10156106ae576040517f08c379a00000000000000000000000000000000000000000000000000000000081526004016106a590614546565b60405180910390fd5b6106b981848461203b565b505050565b600360009054906101000a900460ff1681565b6106d96120c1565b73ffffffffffffffffffffffffffffffffffffffff166106f76111bc565b73ffffffffffffffffffffffffffffffffffffffff161461074d576040517f08c379a000000000000000000000000000000000000000000000000000000000815260040161074490614726565b60405180910390fd5b6107556120c9565b565b60001515610763610b2f565b1515146107a5576040517f08c379a000000000000000000000000000000000000000000000000000000000815260040161079c906145c6565b60405180910390fd5b60016002546107b49190614b80565b86146107f5576040517f08c379a00000000000000000000000000000000000000000000000000000000081526004016107ec90614706565b60405180910390fd5b6000801b851161083a576040517f08c379a000000000000000000000000000000000000000000000000000000000815260040161083190614526565b60405180910390fd5b6000801b841161087f576040517f08c379a0000000000000000000000000000000000000000000000000000000008152600401610876906147c6565b60405180910390fd5b6000801b83116108c4576040517f08c379a00000000000000000000000000000000000000000000000000000000081526004016108bb906146e6565b60405180910390fd5b6000828290501161090a576040517f08c379a000000000000000000000000000000000000000000000000000000000815260040161090190614506565b60405180910390fd5b6001861415610988578486600654868660405160200161092d9493929190614214565b6040516020818303038152906040528051906020012014610983576040517f08c379a000000000000000000000000000000000000000000000000000000000815260040161097a90614446565b60405180910390fd5b610a4f565b848660018060025461099a9190614bd6565b815481106109d1577f4e487b7100000000000000000000000000000000000000000000000000000000600052603260045260246000fd5b90600052602060002090600402016001015486866040516020016109f89493929190614214565b6040516020818303038152906040528051906020012014610a4e576040517f08c379a0000000000000000000000000000000000000000000000000000000008152600401610a4590614446565b60405180910390fd5b5b610a5a82828761216a565b60016040518060800160405280888152602001878152602001868152602001858152509080600181540180825580915050600190039060005260206000209060040201600090919091909150600082015181600001556020820151816001015560408201518160020155606082015181600301555050600160026000828254610ae39190614b80565b925050819055507f8db1a3e65c8d0af3bdb3f553eca6c4b7fea06f7ed3e695ad856f8c57a472734886868686604051610b1f9493929190614981565b60405180910390a1505050505050565b60008060149054906101000a900460ff16905090565b60606005805480602002602001604051908101604052809291908181526020018280548015610bc957602002820191906000526020600020905b8160009054906101000a900473ffffffffffffffffffffffffffffffffffffffff1673ffffffffffffffffffffffffffffffffffffffff1681526020019060010190808311610b7f575b5050505050905090565b610bdb6120c1565b73ffffffffffffffffffffffffffffffffffffffff16610bf96111bc565b73ffffffffffffffffffffffffffffffffffffffff1614610c4f576040517f08c379a0000000000000000000000000000000000000000000000000000000008152600401610c4690614726565b60405180910390fd5b610c5960006126ad565b565b60001515610c67610b2f565b151514610ca9576040517f08c379a0000000000000000000000000000000000000000000000000000000008152600401610ca0906145c6565b60405180910390fd5b6000801b8511610cee576040517f08c379a0000000000000000000000000000000000000000000000000000000008152600401610ce5906147e6565b60405180910390fd5b600073ffffffffffffffffffffffffffffffffffffffff168473ffffffffffffffffffffffffffffffffffffffff161415610d5e576040517f08c379a0000000000000000000000000000000000000000000000000000000008152600401610d5590614906565b60405180910390fd5b60008311610da1576040517f08c379a0000000000000000000000000000000000000000000000000000000008152600401610d9890614766565b60405180910390fd5b60008211610de4576040517f08c379a0000000000000000000000000000000000000000000000000000000008152600401610ddb90614746565b60405180910390fd5b600254821115610e29576040517f08c379a0000000000000000000000000000000000000000000000000000000008152600401610e20906147a6565b60405180910390fd5b6007600086815260200190815260200160002060009054906101000a900460ff1615610e8a576040517f08c379a0000000000000000000000000000000000000000000000000000000008152600401610e81906143e6565b60405180910390fd5b8373ffffffffffffffffffffffffffffffffffffffff163373ffffffffffffffffffffffffffffffffffffffff1614610ef8576040517f08c379a0000000000000000000000000000000000000000000000000000000008152600401610eef90614786565b60405180910390fd5b6000858585604051602001610f0f93929190614146565b604051602081830303815290604052805190602001209050610f888260018086610f399190614bd6565b81548110610f70577f4e487b7100000000000000000000000000000000000000000000000000000000600052603260045260246000fd5b90600052602060002090600402016002015483612771565b610fc7576040517f08c379a0000000000000000000000000000000000000000000000000000000008152600401610fbe906146a6565b60405180910390fd5b6000600360019054906101000a900473ffffffffffffffffffffffffffffffffffffffff169050848173ffffffffffffffffffffffffffffffffffffffff166370a08231306040518263ffffffff1660e01b81526004016110289190614262565b60206040518083038186803b15801561104057600080fd5b505afa158015611054573d6000803e3d6000fd5b505050506040513d601f19601f8201168201806040525081019061107891906138c2565b10156110b9576040517f08c379a00000000000000000000000000000000000000000000000000000000081526004016110b090614546565b60405180910390fd5b6110c481878761203b565b60016007600089815260200190815260200160002060006101000a81548160ff0219169083151502179055507fb66d4229fe9107b32cd9afe73d39ebf3d84f2f8c9dda72fedf450fbd02f701818787878760405161112594939291906142e3565b60405180910390a150505050505050565b61113e6120c1565b73ffffffffffffffffffffffffffffffffffffffff1661115c6111bc565b73ffffffffffffffffffffffffffffffffffffffff16146111b2576040517f08c379a00000000000000000000000000000000000000000000000000000000081526004016111a990614726565b60405180910390fd5b6111ba612788565b565b60008060009054906101000a900473ffffffffffffffffffffffffffffffffffffffff16905090565b600360019054906101000a900473ffffffffffffffffffffffffffffffffffffffff1681565b6060600480548060200260200160405190810160405280929190818152602001828054801561128f57602002820191906000526020600020905b8160009054906101000a900473ffffffffffffffffffffffffffffffffffffffff1673ffffffffffffffffffffffffffffffffffffffff1681526020019060010190808311611245575b5050505050905090565b600181815481106112a957600080fd5b90600052602060002090600402016000915090508060000154908060010154908060020154908060030154905084565b6112e16120c1565b73ffffffffffffffffffffffffffffffffffffffff166112ff6111bc565b73ffffffffffffffffffffffffffffffffffffffff1614611355576040517f08c379a000000000000000000000000000000000000000000000000000000000815260040161134c90614726565b60405180910390fd5b600073ffffffffffffffffffffffffffffffffffffffff168173ffffffffffffffffffffffffffffffffffffffff1614156113c5576040517f08c379a00000000000000000000000000000000000000000000000000000000081526004016113bc906144c6565b60405180910390fd5b6113ce816126ad565b50565b60025481565b600015156113e3610b2f565b151514611425576040517f08c379a000000000000000000000000000000000000000000000000000000000815260040161141c906145c6565b60405180910390fd5b6000801b861161146a576040517f08c379a000000000000000000000000000000000000000000000000000000000815260040161146190614566565b60405180910390fd5b600085859050116114b0576040517f08c379a00000000000000000000000000000000000000000000000000000000081526004016114a790614406565b60405180910390fd5b600083839050116114f6576040517f08c379a00000000000000000000000000000000000000000000000000000000081526004016114ed90614506565b60405180910390fd5b60005b858590508160ff1610156119b8576000151561157185859061151b9190614c69565b88888560ff16818110611557577f4e487b7100000000000000000000000000000000000000000000000000000000600052603260045260246000fd5b905060200201602081019061156c91906136e1565b61282b565b1515146115b3576040517f08c379a00000000000000000000000000000000000000000000000000000000081526004016115aa90614606565b60405180910390fd5b60001515611652878780806020026020016040519081016040528093929190818152602001838360200280828437600081840152601f19601f8201169050808301925050505050505088888560ff16818110611638577f4e487b7100000000000000000000000000000000000000000000000000000000600052603260045260246000fd5b905060200201602081019061164d91906136e1565b6128e3565b151514611694576040517f08c379a000000000000000000000000000000000000000000000000000000000815260040161168b90614846565b60405180910390fd5b60001515611778600580548060200260200160405190810160405280929190818152602001828054801561171d57602002820191906000526020600020905b8160009054906101000a900473ffffffffffffffffffffffffffffffffffffffff1673ffffffffffffffffffffffffffffffffffffffff16815260200190600101908083116116d3575b505050505088888560ff1681811061175e577f4e487b7100000000000000000000000000000000000000000000000000000000600052603260045260246000fd5b905060200201602081019061177391906136e1565b6129a3565b1515146117ba576040517f08c379a00000000000000000000000000000000000000000000000000000000081526004016117b1906148c6565b60405180910390fd5b600061189c600480548060200260200160405190810160405280929190818152602001828054801561184157602002820191906000526020600020905b8160009054906101000a900473ffffffffffffffffffffffffffffffffffffffff1673ffffffffffffffffffffffffffffffffffffffff16815260200190600101908083116117f7575b505050505088888560ff16818110611882577f4e487b7100000000000000000000000000000000000000000000000000000000600052603260045260246000fd5b905060200201602081019061189791906136e1565b6129a3565b9050600060018111156118d8577f4e487b7100000000000000000000000000000000000000000000000000000000600052602160045260246000fd5b836001811115611911577f4e487b7100000000000000000000000000000000000000000000000000000000600052602160045260246000fd5b141561196357600015158115151461195e576040517f08c379a000000000000000000000000000000000000000000000000000000000815260040161195590614886565b60405180910390fd5b6119a4565b806119a3576040517f08c379a000000000000000000000000000000000000000000000000000000000815260040161199a90614646565b60405180910390fd5b5b5080806119b090614d3a565b9150506114f9565b50600060405180602001604052806000815250905060005b868690508160ff161015611a65578187878360ff16818110611a1b577f4e487b7100000000000000000000000000000000000000000000000000000000600052603260045260246000fd5b9050602002016020810190611a3091906136e1565b604051602001611a419291906141c6565b60405160208183030381529060405291508080611a5d90614d3a565b9150506119d0565b5086818051906020012014611aaf576040517f08c379a0000000000000000000000000000000000000000000000000000000008152600401611aa6906148a6565b60405180910390fd5b611aba84848961216a565b60006001811115611af4577f4e487b7100000000000000000000000000000000000000000000000000000000600052602160045260246000fd5b826001811115611b2d577f4e487b7100000000000000000000000000000000000000000000000000000000600052602160045260246000fd5b1415611c975760005b868690508160ff161015611c9157600487878360ff16818110611b82577f4e487b7100000000000000000000000000000000000000000000000000000000600052603260045260246000fd5b9050602002016020810190611b9791906136e1565b9080600181540180825580915050600190039060005260206000200160009091909190916101000a81548173ffffffffffffffffffffffffffffffffffffffff021916908373ffffffffffffffffffffffffffffffffffffffff1602179055507f6a7a7b9e5967ba1cf76c3d7d5a9b98e96f11754855b04564fada97b94741ad3687878360ff16818110611c54577f4e487b7100000000000000000000000000000000000000000000000000000000600052603260045260246000fd5b9050602002016020810190611c6991906136e1565b604051611c769190614262565b60405180910390a18080611c8990614d3a565b915050611b36565b50612032565b60005b868690508160ff161015612030576000805b6004805490508160ff161015611dc25760048160ff1681548110611cf9577f4e487b7100000000000000000000000000000000000000000000000000000000600052603260045260246000fd5b9060005260206000200160009054906101000a900473ffffffffffffffffffffffffffffffffffffffff1673ffffffffffffffffffffffffffffffffffffffff1689898560ff16818110611d76577f4e487b7100000000000000000000000000000000000000000000000000000000600052603260045260246000fd5b9050602002016020810190611d8b91906136e1565b73ffffffffffffffffffffffffffffffffffffffff161415611daf57809150611dc2565b8080611dba90614d3a565b915050611cac565b5060048160ff1681548110611e00577f4e487b7100000000000000000000000000000000000000000000000000000000600052603260045260246000fd5b9060005260206000200160006101000a81549073ffffffffffffffffffffffffffffffffffffffff021916905560046001600480549050611e419190614bd6565b81548110611e78577f4e487b7100000000000000000000000000000000000000000000000000000000600052603260045260246000fd5b9060005260206000200160009054906101000a900473ffffffffffffffffffffffffffffffffffffffff1660048260ff1681548110611ee0577f4e487b7100000000000000000000000000000000000000000000000000000000600052603260045260246000fd5b9060005260206000200160006101000a81548173ffffffffffffffffffffffffffffffffffffffff021916908373ffffffffffffffffffffffffffffffffffffffff1602179055506004805480611f60577f4e487b7100000000000000000000000000000000000000000000000000000000600052603160045260246000fd5b6001900381819060005260206000200160006101000a81549073ffffffffffffffffffffffffffffffffffffffff021916905590557f1af60f72d206709ac9c5fd393b54381507af4df1feb01708422ef8498c57aa5788888460ff16818110611ff2577f4e487b7100000000000000000000000000000000000000000000000000000000600052603260045260246000fd5b905060200201602081019061200791906136e1565b6040516120149190614262565b60405180910390a150808061202890614d3a565b915050611c9a565b505b50505050505050565b6120bc8363a9059cbb60e01b848460405160240161205a92919061427d565b604051602081830303815290604052907bffffffffffffffffffffffffffffffffffffffffffffffffffffffff19166020820180517bffffffffffffffffffffffffffffffffffffffffffffffffffffffff8381831617835250505050612a57565b505050565b600033905090565b6120d1610b2f565b612110576040517f08c379a000000000000000000000000000000000000000000000000000000000815260040161210790614466565b60405180910390fd5b60008060146101000a81548160ff0219169083151502179055507f5db9ee0a495bf2e6ff9c91a7834c1ba4fdd244a5e8aa4e537bd38aeae4b073aa6121536120c1565b6040516121609190614262565b60405180910390a1565b600360009054906101000a900460ff1660ff1660048054905010156121d85760048054905083839050146121d3576040517f08c379a00000000000000000000000000000000000000000000000000000000081526004016121ca90614586565b60405180910390fd5b612231565b600360009054906101000a900460ff1660ff16838390501015612230576040517f08c379a000000000000000000000000000000000000000000000000000000000815260040161222790614486565b60405180910390fd5b5b60005b6005805490508160ff161015612313576122c18484906122549190614c69565b60058360ff1681548110612291577f4e487b7100000000000000000000000000000000000000000000000000000000600052603260045260246000fd5b9060005260206000200160009054906101000a900473ffffffffffffffffffffffffffffffffffffffff1661282b565b612300576040517f08c379a00000000000000000000000000000000000000000000000000000000081526004016122f7906144e6565b60405180910390fd5b808061230b90614d3a565b915050612234565b5060005b838390508160ff1610156126a75761241460048054806020026020016040519081016040528092919081815260200182805480156123aa57602002820191906000526020600020905b8160009054906101000a900473ffffffffffffffffffffffffffffffffffffffff1673ffffffffffffffffffffffffffffffffffffffff1681526020019060010190808311612360575b505050505085858460ff168181106123eb577f4e487b7100000000000000000000000000000000000000000000000000000000600052603260045260246000fd5b90506020028101906123fd9190614a38565b600001602081019061240f91906136e1565b6129a3565b612453576040517f08c379a000000000000000000000000000000000000000000000000000000000815260040161244a90614926565b60405180910390fd5b600015156124cc8585906124679190614c69565b86868560ff168181106124a3577f4e487b7100000000000000000000000000000000000000000000000000000000600052603260045260246000fd5b90506020028101906124b59190614a38565b60000160208101906124c791906136e1565b612b1e565b15151461250e576040517f08c379a000000000000000000000000000000000000000000000000000000000815260040161250590614946565b60405180910390fd5b83838260ff1681811061254a577f4e487b7100000000000000000000000000000000000000000000000000000000600052603260045260246000fd5b905060200281019061255c9190614a38565b600001602081019061256e91906136e1565b73ffffffffffffffffffffffffffffffffffffffff1661263e85858460ff168181106125c3577f4e487b7100000000000000000000000000000000000000000000000000000000600052603260045260246000fd5b90506020028101906125d59190614a38565b80602001906125e491906149e1565b8080601f016020809104026020016040519081016040528093929190818152602001838380828437600081840152601f19601f8201169050808301925050505050505061263085612be2565b612c1290919063ffffffff16565b73ffffffffffffffffffffffffffffffffffffffff1614612694576040517f08c379a000000000000000000000000000000000000000000000000000000000815260040161268b90614426565b60405180910390fd5b808061269f90614d3a565b915050612317565b50505050565b60008060009054906101000a900473ffffffffffffffffffffffffffffffffffffffff169050816000806101000a81548173ffffffffffffffffffffffffffffffffffffffff021916908373ffffffffffffffffffffffffffffffffffffffff1602179055508173ffffffffffffffffffffffffffffffffffffffff168173ffffffffffffffffffffffffffffffffffffffff167f8be0079c531659141344cd1fd0a4f28419497f9722a3daafe3b4186f6b6457e060405160405180910390a35050565b60008261277e8584612c39565b1490509392505050565b612790610b2f565b156127d0576040517f08c379a00000000000000000000000000000000000000000000000000000000081526004016127c790614626565b60405180910390fd5b6001600060146101000a81548160ff0219169083151502179055507f62e78cea01bee320cd4e420270b5ea74000d11b0c9f74754ebdbfc544b05a2586128146120c1565b6040516128219190614262565b60405180910390a1565b600080600090505b83518160ff1610156128d7578273ffffffffffffffffffffffffffffffffffffffff16848260ff1681518110612892577f4e487b7100000000000000000000000000000000000000000000000000000000600052603260045260246000fd5b60200260200101516000015173ffffffffffffffffffffffffffffffffffffffff1614156128c45760019150506128dd565b80806128cf90614d3a565b915050612833565b50600090505b92915050565b6000806000905060005b84518160ff161015612992578373ffffffffffffffffffffffffffffffffffffffff16858260ff168151811061294c577f4e487b7100000000000000000000000000000000000000000000000000000000600052603260045260246000fd5b602002602001015173ffffffffffffffffffffffffffffffffffffffff16141561297f57818061297b90614d3a565b9250505b808061298a90614d3a565b9150506128ed565b5060018160ff161191505092915050565b600080600090505b83518160ff161015612a4b578273ffffffffffffffffffffffffffffffffffffffff16848260ff1681518110612a0a577f4e487b7100000000000000000000000000000000000000000000000000000000600052603260045260246000fd5b602002602001015173ffffffffffffffffffffffffffffffffffffffff161415612a38576001915050612a51565b8080612a4390614d3a565b9150506129ab565b50600090505b92915050565b6000612ab9826040518060400160405280602081526020017f5361666545524332303a206c6f772d6c6576656c2063616c6c206661696c65648152508573ffffffffffffffffffffffffffffffffffffffff16612d129092919063ffffffff16565b9050600081511115612b195780806020019051810190612ad99190613746565b612b18576040517f08c379a0000000000000000000000000000000000000000000000000000000008152600401612b0f906148e6565b60405180910390fd5b5b505050565b6000806000905060005b84518160ff161015612bd1578373ffffffffffffffffffffffffffffffffffffffff16858260ff1681518110612b87577f4e487b7100000000000000000000000000000000000000000000000000000000600052603260045260246000fd5b60200260200101516000015173ffffffffffffffffffffffffffffffffffffffff161415612bbe578180612bba90614d3a565b9250505b8080612bc990614d3a565b915050612b28565b5060018160ff161191505092915050565b600081604051602001612bf591906141ee565b604051602081830303815290604052805190602001209050919050565b6000806000612c218585612d2a565b91509150612c2e81612dad565b819250505092915050565b60008082905060005b8451811015612d07576000858281518110612c86577f4e487b7100000000000000000000000000000000000000000000000000000000600052603260045260246000fd5b60200260200101519050808311612cc7578281604051602001612caa929190614183565b604051602081830303815290604052805190602001209250612cf3565b8083604051602001612cda929190614183565b6040516020818303038152906040528051906020012092505b508080612cff90614cf1565b915050612c42565b508091505092915050565b6060612d2184846000856130fe565b90509392505050565b600080604183511415612d6c5760008060006020860151925060408601519150606086015160001a9050612d6087828585613212565b94509450505050612da6565b604083511415612d9d576000806020850151915060408501519050612d9286838361331f565b935093505050612da6565b60006002915091505b9250929050565b60006004811115612de7577f4e487b7100000000000000000000000000000000000000000000000000000000600052602160045260246000fd5b816004811115612e20577f4e487b7100000000000000000000000000000000000000000000000000000000600052602160045260246000fd5b1415612e2b576130fb565b60016004811115612e65577f4e487b7100000000000000000000000000000000000000000000000000000000600052602160045260246000fd5b816004811115612e9e577f4e487b7100000000000000000000000000000000000000000000000000000000600052602160045260246000fd5b1415612edf576040517f08c379a0000000000000000000000000000000000000000000000000000000008152600401612ed6906143c6565b60405180910390fd5b60026004811115612f19577f4e487b7100000000000000000000000000000000000000000000000000000000600052602160045260246000fd5b816004811115612f52577f4e487b7100000000000000000000000000000000000000000000000000000000600052602160045260246000fd5b1415612f93576040517f08c379a0000000000000000000000000000000000000000000000000000000008152600401612f8a906144a6565b60405180910390fd5b60036004811115612fcd577f4e487b7100000000000000000000000000000000000000000000000000000000600052602160045260246000fd5b816004811115613006577f4e487b7100000000000000000000000000000000000000000000000000000000600052602160045260246000fd5b1415613047576040517f08c379a000000000000000000000000000000000000000000000000000000000815260040161303e906145a6565b60405180910390fd5b600480811115613080577f4e487b7100000000000000000000000000000000000000000000000000000000600052602160045260246000fd5b8160048111156130b9577f4e487b7100000000000000000000000000000000000000000000000000000000600052602160045260246000fd5b14156130fa576040517f08c379a00000000000000000000000000000000000000000000000000000000081526004016130f1906146c6565b60405180910390fd5b5b50565b606082471015613143576040517f08c379a000000000000000000000000000000000000000000000000000000000815260040161313a906145e6565b60405180910390fd5b61314c8561336d565b61318b576040517f08c379a000000000000000000000000000000000000000000000000000000000815260040161318290614826565b60405180910390fd5b6000808673ffffffffffffffffffffffffffffffffffffffff1685876040516131b491906141af565b60006040518083038185875af1925050503d80600081146131f1576040519150601f19603f3d011682016040523d82523d6000602084013e6131f6565b606091505b5091509150613206828286613380565b92505050949350505050565b6000807f7fffffffffffffffffffffffffffffff5d576e7357a4501ddfe92f46681b20a08360001c111561324d576000600391509150613316565b601b8560ff16141580156132655750601c8560ff1614155b15613277576000600491509150613316565b60006001878787876040516000815260200160405260405161329c949392919061435f565b6020604051602081039080840390855afa1580156132be573d6000803e3d6000fd5b505050602060405103519050600073ffffffffffffffffffffffffffffffffffffffff168173ffffffffffffffffffffffffffffffffffffffff16141561330d57600060019250925050613316565b80600092509250505b94509492505050565b6000806000807f7fffffffffffffffffffffffffffffffffffffffffffffffffffffffffffffff85169150601b8560ff1c01905061335f87828885613212565b935093505050935093915050565b600080823b905060008111915050919050565b60608315613390578290506133e0565b6000835111156133a35782518084602001fd5b816040517f08c379a00000000000000000000000000000000000000000000000000000000081526004016133d791906143a4565b60405180910390fd5b9392505050565b60006133fa6133f584614a81565b614a5c565b9050808382526020820190508285602086028201111561341957600080fd5b60005b85811015613449578161342f88826135ff565b84526020840193506020830192505060018101905061341c565b5050509392505050565b600061346661346184614aad565b614a5c565b9050808382526020820190508285602086028201111561348557600080fd5b60005b858110156134cf57813567ffffffffffffffff8111156134a757600080fd5b8086016134b48982613653565b85526020850194506020840193505050600181019050613488565b5050509392505050565b60006134ec6134e784614ad9565b614a5c565b90508281526020810184848401111561350457600080fd5b61350f848285614c7e565b509392505050565b60008135905061352681615634565b92915050565b60008083601f84011261353e57600080fd5b8235905067ffffffffffffffff81111561355757600080fd5b60208301915083602082028301111561356f57600080fd5b9250929050565b600082601f83011261358757600080fd5b81356135978482602086016133e7565b91505092915050565b60008083601f8401126135b257600080fd5b8235905067ffffffffffffffff8111156135cb57600080fd5b6020830191508360208202830111156135e357600080fd5b9250929050565b6000815190506135f98161564b565b92915050565b60008135905061360e81615662565b92915050565b600082601f83011261362557600080fd5b81356136358482602086016134d9565b91505092915050565b60008135905061364d81615679565b92915050565b60006040828403121561366557600080fd5b61366f6040614a5c565b9050600061367f84828501613517565b600083015250602082013567ffffffffffffffff81111561369f57600080fd5b6136ab84828501613614565b60208301525092915050565b6000813590506136c681615689565b92915050565b6000815190506136db81615689565b92915050565b6000602082840312156136f357600080fd5b600061370184828501613517565b91505092915050565b6000806040838503121561371d57600080fd5b600061372b85828601613517565b925050602061373c858286016136b7565b9150509250929050565b60006020828403121561375857600080fd5b6000613766848285016135ea565b91505092915050565b600080600080600060a0868803121561378757600080fd5b6000613795888289016135ff565b95505060206137a688828901613517565b94505060406137b7888289016136b7565b93505060606137c8888289016136b7565b925050608086013567ffffffffffffffff8111156137e557600080fd5b6137f188828901613576565b9150509295509295909350565b6000806000806000806080878903121561381757600080fd5b600061382589828a016135ff565b965050602087013567ffffffffffffffff81111561384257600080fd5b61384e89828a0161352c565b9550955050604087013567ffffffffffffffff81111561386d57600080fd5b61387989828a016135a0565b9350935050606061388c89828a0161363e565b9150509295509295509295565b6000602082840312156138ab57600080fd5b60006138b9848285016136b7565b91505092915050565b6000602082840312156138d457600080fd5b60006138e2848285016136cc565b91505092915050565b60008060008060008060a0878903121561390457600080fd5b600061391289828a016136b7565b965050602061392389828a016135ff565b955050604061393489828a016135ff565b945050606061394589828a016135ff565b935050608087013567ffffffffffffffff81111561396257600080fd5b61396e89828a016135a0565b92509250509295509295509295565b60006139898383613995565b60208301905092915050565b61399e81614c0a565b82525050565b6139ad81614c0a565b82525050565b6139c46139bf82614c0a565b614d64565b82525050565b60006139d582614b1a565b6139df8185614b48565b93506139ea83614b0a565b8060005b83811015613a1b578151613a02888261397d565b9750613a0d83614b3b565b9250506001810190506139ee565b5085935050505092915050565b613a3181614c1c565b82525050565b613a4081614c28565b82525050565b613a57613a5282614c28565b614d76565b82525050565b6000613a6882614b25565b613a728185614b59565b9350613a82818560208601614c8d565b80840191505092915050565b6000613a9982614b30565b613aa38185614b64565b9350613ab3818560208601614c8d565b613abc81614dfa565b840191505092915050565b6000613ad4601883614b64565b9150613adf82614e18565b602082019050919050565b6000613af7600483614b64565b9150613b0282614e41565b602082019050919050565b6000613b1a600483614b64565b9150613b2582614e6a565b602082019050919050565b6000613b3d600483614b64565b9150613b4882614e93565b602082019050919050565b6000613b60600483614b64565b9150613b6b82614ebc565b602082019050919050565b6000613b83601483614b64565b9150613b8e82614ee5565b602082019050919050565b6000613ba6600483614b64565b9150613bb182614f0e565b602082019050919050565b6000613bc9601f83614b64565b9150613bd482614f37565b602082019050919050565b6000613bec601c83614b75565b9150613bf782614f60565b601c82019050919050565b6000613c0f602683614b64565b9150613c1a82614f89565b604082019050919050565b6000613c32600483614b64565b9150613c3d82614fd8565b602082019050919050565b6000613c55600483614b64565b9150613c6082615001565b602082019050919050565b6000613c78600483614b64565b9150613c838261502a565b602082019050919050565b6000613c9b600483614b64565b9150613ca682615053565b602082019050919050565b6000613cbe600483614b64565b9150613cc98261507c565b602082019050919050565b6000613ce1600483614b64565b9150613cec826150a5565b602082019050919050565b6000613d04602283614b64565b9150613d0f826150ce565b604082019050919050565b6000613d27600483614b64565b9150613d328261511d565b602082019050919050565b6000613d4a602683614b64565b9150613d5582615146565b604082019050919050565b6000613d6d600483614b64565b9150613d7882615195565b602082019050919050565b6000613d90601083614b64565b9150613d9b826151be565b602082019050919050565b6000613db3600483614b64565b9150613dbe826151e7565b602082019050919050565b6000613dd6600483614b64565b9150613de182615210565b602082019050919050565b6000613df9600483614b64565b9150613e0482615239565b602082019050919050565b6000613e1c600483614b64565b9150613e2782615262565b602082019050919050565b6000613e3f602283614b64565b9150613e4a8261528b565b604082019050919050565b6000613e62600483614b64565b9150613e6d826152da565b602082019050919050565b6000613e85600483614b64565b9150613e9082615303565b602082019050919050565b6000613ea8602083614b64565b9150613eb38261532c565b602082019050919050565b6000613ecb600483614b64565b9150613ed682615355565b602082019050919050565b6000613eee600483614b64565b9150613ef98261537e565b602082019050919050565b6000613f11600483614b64565b9150613f1c826153a7565b602082019050919050565b6000613f34600483614b64565b9150613f3f826153d0565b602082019050919050565b6000613f57600483614b64565b9150613f62826153f9565b602082019050919050565b6000613f7a600483614b64565b9150613f8582615422565b602082019050919050565b6000613f9d600483614b64565b9150613fa88261544b565b602082019050919050565b6000613fc0601d83614b64565b9150613fcb82615474565b602082019050919050565b6000613fe3600483614b64565b9150613fee8261549d565b602082019050919050565b6000614006600483614b64565b9150614011826154c6565b602082019050919050565b6000614029600483614b64565b9150614034826154ef565b602082019050919050565b600061404c600483614b64565b915061405782615518565b602082019050919050565b600061406f600483614b64565b915061407a82615541565b602082019050919050565b6000614092602a83614b64565b915061409d8261556a565b604082019050919050565b60006140b5600483614b64565b91506140c0826155b9565b602082019050919050565b60006140d8600483614b64565b91506140e3826155e2565b602082019050919050565b60006140fb600483614b64565b91506141068261560b565b602082019050919050565b61411a81614c52565b82525050565b61413161412c82614c52565b614d92565b82525050565b61414081614c5c565b82525050565b60006141528286613a46565b60208201915061416282856139b3565b6014820191506141728284614120565b602082019150819050949350505050565b600061418f8285613a46565b60208201915061419f8284613a46565b6020820191508190509392505050565b60006141bb8284613a5d565b915081905092915050565b60006141d28285613a5d565b91506141de82846139b3565b6014820191508190509392505050565b60006141f982613bdf565b91506142058284613a46565b60208201915081905092915050565b60006142208287614120565b6020820191506142308286613a46565b6020820191506142408285613a46565b6020820191506142508284613a46565b60208201915081905095945050505050565b600060208201905061427760008301846139a4565b92915050565b600060408201905061429260008301856139a4565b61429f6020830184614111565b9392505050565b600060208201905081810360008301526142c081846139ca565b905092915050565b60006020820190506142dd6000830184613a28565b92915050565b60006080820190506142f86000830187613a37565b61430560208301866139a4565b6143126040830185614111565b61431f6060830184614111565b95945050505050565b600060608201905061433d6000830186613a37565b61434a6020830185613a37565b6143576040830184613a37565b949350505050565b60006080820190506143746000830187613a37565b6143816020830186614137565b61438e6040830185613a37565b61439b6060830184613a37565b95945050505050565b600060208201905081810360008301526143be8184613a8e565b905092915050565b600060208201905081810360008301526143df81613ac7565b9050919050565b600060208201905081810360008301526143ff81613aea565b9050919050565b6000602082019050818103600083015261441f81613b0d565b9050919050565b6000602082019050818103600083015261443f81613b30565b9050919050565b6000602082019050818103600083015261445f81613b53565b9050919050565b6000602082019050818103600083015261447f81613b76565b9050919050565b6000602082019050818103600083015261449f81613b99565b9050919050565b600060208201905081810360008301526144bf81613bbc565b9050919050565b600060208201905081810360008301526144df81613c02565b9050919050565b600060208201905081810360008301526144ff81613c25565b9050919050565b6000602082019050818103600083015261451f81613c48565b9050919050565b6000602082019050818103600083015261453f81613c6b565b9050919050565b6000602082019050818103600083015261455f81613c8e565b9050919050565b6000602082019050818103600083015261457f81613cb1565b9050919050565b6000602082019050818103600083015261459f81613cd4565b9050919050565b600060208201905081810360008301526145bf81613cf7565b9050919050565b600060208201905081810360008301526145df81613d1a565b9050919050565b600060208201905081810360008301526145ff81613d3d565b9050919050565b6000602082019050818103600083015261461f81613d60565b9050919050565b6000602082019050818103600083015261463f81613d83565b9050919050565b6000602082019050818103600083015261465f81613da6565b9050919050565b6000602082019050818103600083015261467f81613dc9565b9050919050565b6000602082019050818103600083015261469f81613dec565b9050919050565b600060208201905081810360008301526146bf81613e0f565b9050919050565b600060208201905081810360008301526146df81613e32565b9050919050565b600060208201905081810360008301526146ff81613e55565b9050919050565b6000602082019050818103600083015261471f81613e78565b9050919050565b6000602082019050818103600083015261473f81613e9b565b9050919050565b6000602082019050818103600083015261475f81613ebe565b9050919050565b6000602082019050818103600083015261477f81613ee1565b9050919050565b6000602082019050818103600083015261479f81613f04565b9050919050565b600060208201905081810360008301526147bf81613f27565b9050919050565b600060208201905081810360008301526147df81613f4a565b9050919050565b600060208201905081810360008301526147ff81613f6d565b9050919050565b6000602082019050818103600083015261481f81613f90565b9050919050565b6000602082019050818103600083015261483f81613fb3565b9050919050565b6000602082019050818103600083015261485f81613fd6565b9050919050565b6000602082019050818103600083015261487f81613ff9565b9050919050565b6000602082019050818103600083015261489f8161401c565b9050919050565b600060208201905081810360008301526148bf8161403f565b9050919050565b600060208201905081810360008301526148df81614062565b9050919050565b600060208201905081810360008301526148ff81614085565b9050919050565b6000602082019050818103600083015261491f816140a8565b9050919050565b6000602082019050818103600083015261493f816140cb565b9050919050565b6000602082019050818103600083015261495f816140ee565b9050919050565b600060208201905061497b6000830184614111565b92915050565b60006080820190506149966000830187614111565b6149a36020830186613a37565b6149b06040830185613a37565b6149bd6060830184613a37565b95945050505050565b60006020820190506149db6000830184614137565b92915050565b600080833560016020038436030381126149fa57600080fd5b80840192508235915067ffffffffffffffff821115614a1857600080fd5b602083019250600182023603831315614a3057600080fd5b509250929050565b600082356001604003833603038112614a5057600080fd5b80830191505092915050565b6000614a66614a77565b9050614a728282614cc0565b919050565b6000604051905090565b600067ffffffffffffffff821115614a9c57614a9b614dcb565b5b602082029050602081019050919050565b600067ffffffffffffffff821115614ac857614ac7614dcb565b5b602082029050602081019050919050565b600067ffffffffffffffff821115614af457614af3614dcb565b5b614afd82614dfa565b9050602081019050919050565b6000819050602082019050919050565b600081519050919050565b600081519050919050565b600081519050919050565b6000602082019050919050565b600082825260208201905092915050565b600081905092915050565b600082825260208201905092915050565b600081905092915050565b6000614b8b82614c52565b9150614b9683614c52565b9250827fffffffffffffffffffffffffffffffffffffffffffffffffffffffffffffffff03821115614bcb57614bca614d9c565b5b828201905092915050565b6000614be182614c52565b9150614bec83614c52565b925082821015614bff57614bfe614d9c565b5b828203905092915050565b6000614c1582614c32565b9050919050565b60008115159050919050565b6000819050919050565b600073ffffffffffffffffffffffffffffffffffffffff82169050919050565b6000819050919050565b600060ff82169050919050565b6000614c76368484613453565b905092915050565b82818337600083830152505050565b60005b83811015614cab578082015181840152602081019050614c90565b83811115614cba576000848401525b50505050565b614cc982614dfa565b810181811067ffffffffffffffff82111715614ce857614ce7614dcb565b5b80604052505050565b6000614cfc82614c52565b91507fffffffffffffffffffffffffffffffffffffffffffffffffffffffffffffffff821415614d2f57614d2e614d9c565b5b600182019050919050565b6000614d4582614c5c565b915060ff821415614d5957614d58614d9c565b5b600182019050919050565b6000614d6f82614d80565b9050919050565b6000819050919050565b6000614d8b82614e0b565b9050919050565b6000819050919050565b7f4e487b7100000000000000000000000000000000000000000000000000000000600052601160045260246000fd5b7f4e487b7100000000000000000000000000000000000000000000000000000000600052604160045260246000fd5b6000601f19601f8301169050919050565b60008160601b9050919050565b7f45434453413a20696e76616c6964207369676e61747572650000000000000000600082015250565b7f4533303600000000000000000000000000000000000000000000000000000000600082015250565b7f4531303200000000000000000000000000000000000000000000000000000000600082015250565b7f4530303700000000000000000000000000000000000000000000000000000000600082015250565b7f4532303500000000000000000000000000000000000000000000000000000000600082015250565b7f5061757361626c653a206e6f7420706175736564000000000000000000000000600082015250565b7f4530303300000000000000000000000000000000000000000000000000000000600082015250565b7f45434453413a20696e76616c6964207369676e6174757265206c656e67746800600082015250565b7f19457468657265756d205369676e6564204d6573736167653a0a333200000000600082015250565b7f4f776e61626c653a206e6577206f776e657220697320746865207a65726f206160008201527f6464726573730000000000000000000000000000000000000000000000000000602082015250565b7f4530303400000000000000000000000000000000000000000000000000000000600082015250565b7f4530303100000000000000000000000000000000000000000000000000000000600082015250565b7f4532303200000000000000000000000000000000000000000000000000000000600082015250565b7f4530303800000000000000000000000000000000000000000000000000000000600082015250565b7f4531303100000000000000000000000000000000000000000000000000000000600082015250565b7f4530303200000000000000000000000000000000000000000000000000000000600082015250565b7f45434453413a20696e76616c6964207369676e6174757265202773272076616c60008201527f7565000000000000000000000000000000000000000000000000000000000000602082015250565b7f4530303000000000000000000000000000000000000000000000000000000000600082015250565b7f416464726573733a20696e73756666696369656e742062616c616e636520666f60008201527f722063616c6c0000000000000000000000000000000000000000000000000000602082015250565b7f4531303300000000000000000000000000000000000000000000000000000000600082015250565b7f5061757361626c653a2070617573656400000000000000000000000000000000600082015250565b7f4531303700000000000000000000000000000000000000000000000000000000600082015250565b7f4534303200000000000000000000000000000000000000000000000000000000600082015250565b7f4530303900000000000000000000000000000000000000000000000000000000600082015250565b7f4533303800000000000000000000000000000000000000000000000000000000600082015250565b7f45434453413a20696e76616c6964207369676e6174757265202776272076616c60008201527f7565000000000000000000000000000000000000000000000000000000000000602082015250565b7f4532303400000000000000000000000000000000000000000000000000000000600082015250565b7f4532303100000000000000000000000000000000000000000000000000000000600082015250565b7f4f776e61626c653a2063616c6c6572206973206e6f7420746865206f776e6572600082015250565b7f4533303400000000000000000000000000000000000000000000000000000000600082015250565b7f4533303300000000000000000000000000000000000000000000000000000000600082015250565b7f4533303700000000000000000000000000000000000000000000000000000000600082015250565b7f4533303500000000000000000000000000000000000000000000000000000000600082015250565b7f4532303300000000000000000000000000000000000000000000000000000000600082015250565b7f4533303100000000000000000000000000000000000000000000000000000000600082015250565b7f4530313000000000000000000000000000000000000000000000000000000000600082015250565b7f416464726573733a2063616c6c20746f206e6f6e2d636f6e7472616374000000600082015250565b7f4531303400000000000000000000000000000000000000000000000000000000600082015250565b7f4534303100000000000000000000000000000000000000000000000000000000600082015250565b7f4531303600000000000000000000000000000000000000000000000000000000600082015250565b7f4531303800000000000000000000000000000000000000000000000000000000600082015250565b7f4531303500000000000000000000000000000000000000000000000000000000600082015250565b7f5361666545524332303a204552433230206f7065726174696f6e20646964206e60008201527f6f74207375636365656400000000000000000000000000000000000000000000602082015250565b7f4533303200000000000000000000000000000000000000000000000000000000600082015250565b7f4530303500000000000000000000000000000000000000000000000000000000600082015250565b7f4530303600000000000000000000000000000000000000000000000000000000600082015250565b61563d81614c0a565b811461564857600080fd5b50565b61565481614c1c565b811461565f57600080fd5b50565b61566b81614c28565b811461567657600080fd5b50565b6002811061568657600080fd5b50565b61569281614c52565b811461569d57600080fd5b5056fea264697066735822122042e56ee24d2ea94081e4023a816b03885eba1ba48131155b77f518f4d3bad14e64736f6c63430008040033",
  "linkReferences": {},
  "deployedLinkReferences": {}
}